:1000000019C02BC02AC029C028C027C026C025C0BF
:1000100024C023C022C021C020C01FC01EC01DC0DC
:100020001CC01BC01AC019C018C017C016C015C00C
:1000300014C013C011241FBECFEFD2E0DEBFCDBF6E
:1000400011E0A0E0B1E0EEE3F1E002C005900D9216
:10005000A036B107D9F702D070C0D2CF85B18FEFEB
:1000600085B991B181B999B199B982B986B9A89583
:1000700088B1282F30E0A90196E0559547959A95CB
:10008000E1F7440F551F4270E82FEE1FEE27EE1FD9
:10009000C9019695982F882797958795E82BE42B8B
:1000A000C901F5E095958795FA95E1F7880F991FB5
:1000B000880F991F8470E82BC901B4E09595879546
:1000C000BA95E1F743E0880F991F4A95E1F78870E8
:1000D000E82BC90153E0959587955A95E1F764E0BF
:1000E000880F991F6A95E1F78071E82BC9019595F2
:1000F000879595958795F5E0880F991FFA95E1F713
:100100008072E82B35952795B6E0220F331FBA95FC
:10011000E1F72074E22BAE2FA295AF70B0E0A05BA8
:10012000BE4F8C91809582B9EF700E2E000CFF0BA4
:0E013000E05CFE4F8081809599CFF894FFCF60
:10013E00E50000EA88C10000E5000000A0C1000053
:10014E000000000000000000A0A000C26700000038
:10015E00450000D4BDBD0000C9000000BD45000033
:10016E0000000000000000005D890089C900000049
:10017E00CF05EC6D276BEB0DEF6FEDE3E0E5EAAA33
:10018E00ED28B5B978D9DDA8FDF9BD5D153DD5D4FD
:00000001FF
