:1000000019C02BC02AC029C028C027C026C025C0BF
:1000100024C023C022C021C020C01FC01EC01DC0DC
:100020001CC01BC01AC019C018C017C016C015C00C
:1000300014C013C011241FBECFEFD2E0DEBFCDBF6E
:1000400011E0A0E0B1E0E0E0F1E002C005900D9227
:10005000A032B107D9F702D051C0D2CF25B12FEFCE
:1000600025B931B121B939B139B922B926B948B167
:10007000242F30E043FB882780F990E0F90153E01A
:10008000EE0FFF1F5A95E1F7E870FF27E82BF92BD9
:10009000B9017695679562707727E62BF72BB90142
:1000A000660F771F64707727E62BF72BE05FFE4F14
:1000B0005081509552B9F90185E0F695E7958A95FA
:1000C000E1F7E270FF27B90193E0769567959A957D
:1000D000E1F764707727E62BF72B441F4427441F72
:1000E000E42B3695279528703327E22BF32BE0502D
:1000F000FF4F2081209526B9A895B9CFF894FFCF5E
:10010000FC14CDE9B1797DE0FDF9F53D5CAD5D55BF
:10011000B722AD9D1E9BBB15BF9F3FBAA3BCAB2BA7
:00000001FF
